{
  "transactions": [
    {
      "hash": "0xe368e8aead4d2984ce9443a75ad79bdae358e2130c96804e4fb3bc7193ca2523",
      "transactionType": "CREATE",
      "contractName": "RescueFreeFacet",
      "contractAddress": "0xd651b070aa1c4ff57ce7fca9c8d48ffaabc17b93",
      "function": null,
      "arguments": null,
      "transaction": {
        "from": "0xa41d5faf7ba8b82e276125de2a053216e91f4814",
        "gas": "0x63fd2",
        "value": "0x0",
        "input": "0x608080604052346015576104c9908161001a8239f35b5f80fdfe60806040526004361015610011575f80fd5b5f3560e01c6361a76dff14610024575f80fd5b346103b05760403660031901126103b0576004356001600160a01b0381168091036103b05760243567ffffffffffffffff81116103b057366023820112156103b05780600401359167ffffffffffffffff83116103b0573660248460051b840101116103b0576001600160a01b037fc8fcad8db84d3cc18b4c41d551ea0ee66dd599cde068d998e57d5e09332c132154168033036104645750821561043d57603283116104155782906001600160a01b037f11e7bddac94c6a141cc7ee2a55999a1480141fa289ed45287b5d9b5a1d4fea815416925f908215915b848110156104135760248160051b83010135805f527f11e7bddac94c6a141cc7ee2a55999a1480141fa289ed45287b5d9b5a1d4fea7c6020526001600160a01b0360405f2054166103e8576040517f6352211e0000000000000000000000000000000000000000000000000000000081528160048201526020816024818b5afa9081610367575b5061033c578361031457805f527f11e7bddac94c6a141cc7ee2a55999a1480141fa289ed45287b5d9b5a1d4fea7c6020526001600160a01b0360405f2054166102e95790816001925f527f11e7bddac94c6a141cc7ee2a55999a1480141fa289ed45287b5d9b5a1d4fea7c60205260405f20867fffffffffffffffffffffffff0000000000000000000000000000000000000000825416179055855f527f11e7bddac94c6a141cc7ee2a55999a1480141fa289ed45287b5d9b5a1d4fea7d60205260405f20838154019055827f11e7bddac94c6a141cc7ee2a55999a1480141fa289ed45287b5d9b5a1d4fea8054017f11e7bddac94c6a141cc7ee2a55999a1480141fa289ed45287b5d9b5a1d4fea805580865f7fddf252ad1be2c89b69c2b068fc378daa952ba7f163c4a11628f55a4df523b3ef8180a4857f815a3fce047dceac53c27eff722d725fcbecb4bcf8883d3f91b35ced556de5d15f80a3016100ff565b7fb9487cd7000000000000000000000000000000000000000000000000000000005f5260045260245ffd5b7f0fa894ad000000000000000000000000000000000000000000000000000000005f5260045ffd5b7fa7094280000000000000000000000000000000000000000000000000000000005f5260045260245ffd5b60203d81116103e1575b601f8101601f1916820167ffffffffffffffff8111838210176103b4576020918391604052810103126103b057516001600160a01b0381168114610186575b5f80fd5b7f4e487b71000000000000000000000000000000000000000000000000000000005f52604160045260245ffd5b503d610371565b7f0d084464000000000000000000000000000000000000000000000000000000005f5260045260245ffd5b005b7fd18f7b9f000000000000000000000000000000000000000000000000000000005f5260045ffd5b7ef6b210000000000000000000000000000000000000000000000000000000005f5260045ffd5b7fff4127cb000000000000000000000000000000000000000000000000000000005f523360045260245260445ffdfea26469706673582212206fe3e41f049b4d0ccc3f68fed7124b4d5142b12b7d0e91efda36756e5d87733b64736f6c634300081e0033",
        "nonce": "0x38",
        "chainId": "0x1"
      },
      "additionalContracts": [],
      "isFixedGasLimit": false
    },
    {
      "hash": "0x391922b94936aff575d92d5f7f05dd8063d0c8af0ccc8630aebafe3a3d6f3f39",
      "transactionType": "CALL",
      "contractName": null,
      "contractAddress": "0x9252fdc0b3945203314ea1a9b8d64345bc868406",
      "function": "diamondCut((address,uint8,bytes4[])[],address,bytes)",
      "arguments": [
        "[(0xD651b070AA1C4Ff57ce7fCa9C8d48FfAaBC17b93, 0, [0x61a76dff])]",
        "0x0000000000000000000000000000000000000000",
        "0x"
      ],
      "transaction": {
        "from": "0xa41d5faf7ba8b82e276125de2a053216e91f4814",
        "to": "0x9252fdc0b3945203314ea1a9b8d64345bc868406",
        "gas": "0x31344",
        "value": "0x0",
        "input": "0x1f931c1c00000000000000000000000000000000000000000000000000000000000000600000000000000000000000000000000000000000000000000000000000000000000000000000000000000000000000000000000000000000000000000000014000000000000000000000000000000000000000000000000000000000000000010000000000000000000000000000000000000000000000000000000000000020000000000000000000000000d651b070aa1c4ff57ce7fca9c8d48ffaabc17b9300000000000000000000000000000000000000000000000000000000000000000000000000000000000000000000000000000000000000000000000000000060000000000000000000000000000000000000000000000000000000000000000161a76dff000000000000000000000000000000000000000000000000000000000000000000000000000000000000000000000000000000000000000000000000",
        "nonce": "0x39",
        "chainId": "0x1"
      },
      "additionalContracts": [],
      "isFixedGasLimit": false
    },
    {
      "hash": "0xe4075e22bee5b1aee876d07991efab7b6af15548c1453dcc862761d700e977a7",
      "transactionType": "CALL",
      "contractName": null,
      "contractAddress": "0x9252fdc0b3945203314ea1a9b8d64345bc868406",
      "function": "adminFreeBurned(address,uint256[])",
      "arguments": [
        "0x91796dA9B38C524aFe98b9C915E8118a16f55786",
        "[1905, 1906]"
      ],
      "transaction": {
        "from": "0xa41d5faf7ba8b82e276125de2a053216e91f4814",
        "to": "0x9252fdc0b3945203314ea1a9b8d64345bc868406",
        "gas": "0x2e156",
        "value": "0x0",
        "input": "0x61a76dff00000000000000000000000091796da9b38c524afe98b9c915e8118a16f557860000000000000000000000000000000000000000000000000000000000000040000000000000000000000000000000000000000000000000000000000000000200000000000000000000000000000000000000000000000000000000000007710000000000000000000000000000000000000000000000000000000000000772",
        "nonce": "0x3a",
        "chainId": "0x1"
      },
      "additionalContracts": [],
      "isFixedGasLimit": false
    }
  ],
  "receipts": [
    {
      "status": "0x1",
      "cumulativeGasUsed": "0x13c4bb4",
      "logs": [],
      "logsBloom": "0x00000000000000000000000000000000000000000000000000000000000000000000000000000000000000000000000000000000000000000000000000000000000000000000000000000000000000000000000000000000000000000000000000000000000000000000000000000000000000000000000000000000000000000000000000000000000000000000000000000000000000000000000000000000000000000000000000000000000000000000000000000000000000000000000000000000000000000000000000000000000000000000000000000000000000000000000000000000000000000000000000000000000000000000000000000000",
      "type": "0x2",
      "transactionHash": "0xe368e8aead4d2984ce9443a75ad79bdae358e2130c96804e4fb3bc7193ca2523",
      "transactionIndex": "0x97",
      "blockHash": "0x5a005f7f4f5e7eefd25f640f8a703ad97ab337531176ad7fea922a04a96425aa",
      "blockNumber": "0x1860c6b",
      "gasUsed": "0x4cea2",
      "effectiveGasPrice": "0x36ae20e",
      "from": "0xa41d5faf7ba8b82e276125de2a053216e91f4814",
      "to": null,
      "contractAddress": "0xd651b070aa1c4ff57ce7fca9c8d48ffaabc17b93"
    },
    {
      "status": "0x1",
      "cumulativeGasUsed": "0xe9764e",
      "logs": [
        {
          "address": "0x9252fdc0b3945203314ea1a9b8d64345bc868406",
          "topics": [
            "0x8faa70878671ccd212d20771b795c50af8fd3ff6cf27f4bde57e5d4de0aeb673"
          ],
          "data": "0x00000000000000000000000000000000000000000000000000000000000000600000000000000000000000000000000000000000000000000000000000000000000000000000000000000000000000000000000000000000000000000000014000000000000000000000000000000000000000000000000000000000000000010000000000000000000000000000000000000000000000000000000000000020000000000000000000000000d651b070aa1c4ff57ce7fca9c8d48ffaabc17b9300000000000000000000000000000000000000000000000000000000000000000000000000000000000000000000000000000000000000000000000000000060000000000000000000000000000000000000000000000000000000000000000161a76dff000000000000000000000000000000000000000000000000000000000000000000000000000000000000000000000000000000000000000000000000",
          "blockHash": "0xf4f26e06d680526c0d00b92d0cd7254e1fbd1b2297bf573a459fd8819d4b95e7",
          "blockNumber": "0x1860c6c",
          "blockTimestamp": "0x6a5bed4b",
          "transactionHash": "0x391922b94936aff575d92d5f7f05dd8063d0c8af0ccc8630aebafe3a3d6f3f39",
          "transactionIndex": "0x89",
          "logIndex": "0x1d2",
          "removed": false
        }
      ],
      "logsBloom": "0x00000000002000000000000000000000000000000000000000000000000000000000000000000000000000400000000000000000000000000000000000000000000000000000000000000000000000000000000001000000000800000000000000000000000000000000000000000000000000000000000000000000000000000020000000000000000000000000000000000000200000000000000000000000000000000000000000000000000000000000000000000000000000000000000000000000000000000000000000000000000000000000000000000000000000000000000000000000000000000000000000000000000000000000000000000000",
      "type": "0x2",
      "transactionHash": "0x391922b94936aff575d92d5f7f05dd8063d0c8af0ccc8630aebafe3a3d6f3f39",
      "transactionIndex": "0x89",
      "blockHash": "0xf4f26e06d680526c0d00b92d0cd7254e1fbd1b2297bf573a459fd8819d4b95e7",
      "blockNumber": "0x1860c6c",
      "gasUsed": "0x239f8",
      "effectiveGasPrice": "0x3592bab",
      "from": "0xa41d5faf7ba8b82e276125de2a053216e91f4814",
      "to": "0x9252fdc0b3945203314ea1a9b8d64345bc868406",
      "contractAddress": null
    },
    {
      "status": "0x1",
      "cumulativeGasUsed": "0x106a2f6",
      "logs": [
        {
          "address": "0x9252fdc0b3945203314ea1a9b8d64345bc868406",
          "topics": [
            "0xddf252ad1be2c89b69c2b068fc378daa952ba7f163c4a11628f55a4df523b3ef",
            "0x0000000000000000000000000000000000000000000000000000000000000000",
            "0x00000000000000000000000091796da9b38c524afe98b9c915e8118a16f55786",
            "0x0000000000000000000000000000000000000000000000000000000000000771"
          ],
          "data": "0x",
          "blockHash": "0x06b230f2a2e2e87446b82b5cd834dff15a246b29f7523fbf6e3fc661a4db3c11",
          "blockNumber": "0x1860c6d",
          "blockTimestamp": "0x6a5bed57",
          "transactionHash": "0xe4075e22bee5b1aee876d07991efab7b6af15548c1453dcc862761d700e977a7",
          "transactionIndex": "0x8b",
          "logIndex": "0x1bb",
          "removed": false
        },
        {
          "address": "0x9252fdc0b3945203314ea1a9b8d64345bc868406",
          "topics": [
            "0x815a3fce047dceac53c27eff722d725fcbecb4bcf8883d3f91b35ced556de5d1",
            "0x00000000000000000000000091796da9b38c524afe98b9c915e8118a16f55786",
            "0x0000000000000000000000000000000000000000000000000000000000000771"
          ],
          "data": "0x",
          "blockHash": "0x06b230f2a2e2e87446b82b5cd834dff15a246b29f7523fbf6e3fc661a4db3c11",
          "blockNumber": "0x1860c6d",
          "blockTimestamp": "0x6a5bed57",
          "transactionHash": "0xe4075e22bee5b1aee876d07991efab7b6af15548c1453dcc862761d700e977a7",
          "transactionIndex": "0x8b",
          "logIndex": "0x1bc",
          "removed": false
        },
        {
          "address": "0x9252fdc0b3945203314ea1a9b8d64345bc868406",
          "topics": [
            "0xddf252ad1be2c89b69c2b068fc378daa952ba7f163c4a11628f55a4df523b3ef",
            "0x0000000000000000000000000000000000000000000000000000000000000000",
            "0x00000000000000000000000091796da9b38c524afe98b9c915e8118a16f55786",
            "0x0000000000000000000000000000000000000000000000000000000000000772"
          ],
          "data": "0x",
          "blockHash": "0x06b230f2a2e2e87446b82b5cd834dff15a246b29f7523fbf6e3fc661a4db3c11",
          "blockNumber": "0x1860c6d",
          "blockTimestamp": "0x6a5bed57",
          "transactionHash": "0xe4075e22bee5b1aee876d07991efab7b6af15548c1453dcc862761d700e977a7",
          "transactionIndex": "0x8b",
          "logIndex": "0x1bd",
          "removed": false
        },
        {
          "address": "0x9252fdc0b3945203314ea1a9b8d64345bc868406",
          "topics": [
            "0x815a3fce047dceac53c27eff722d725fcbecb4bcf8883d3f91b35ced556de5d1",
            "0x00000000000000000000000091796da9b38c524afe98b9c915e8118a16f55786",
            "0x0000000000000000000000000000000000000000000000000000000000000772"
          ],
          "data": "0x",
          "blockHash": "0x06b230f2a2e2e87446b82b5cd834dff15a246b29f7523fbf6e3fc661a4db3c11",
          "blockNumber": "0x1860c6d",
          "blockTimestamp": "0x6a5bed57",
          "transactionHash": "0xe4075e22bee5b1aee876d07991efab7b6af15548c1453dcc862761d700e977a7",
          "transactionIndex": "0x8b",
          "logIndex": "0x1be",
          "removed": false
        }
      ],
      "logsBloom": "0x0000000000200000000000000000000000000000000000000000000020000000000000000000000000000040000000480000000000000000000000004000000000000000000000000000000c000000000000000000000000000000000000002002200000020000000000000000000800000000000000000000000010000000000000000000000000000000000000000000000000200000000000000000000000000000000000000000000000000000000000000000000000000000000000000004000002000000000000000800400000000000000000000000010000000020000000000000000000000000000000000000000000000000000000000000000000",
      "type": "0x2",
      "transactionHash": "0xe4075e22bee5b1aee876d07991efab7b6af15548c1453dcc862761d700e977a7",
      "transactionIndex": "0x8b",
      "blockHash": "0x06b230f2a2e2e87446b82b5cd834dff15a246b29f7523fbf6e3fc661a4db3c11",
      "blockNumber": "0x1860c6d",
      "gasUsed": "0x1f82a",
      "effectiveGasPrice": "0x32e1c66",
      "from": "0xa41d5faf7ba8b82e276125de2a053216e91f4814",
      "to": "0x9252fdc0b3945203314ea1a9b8d64345bc868406",
      "contractAddress": null
    }
  ],
  "libraries": [],
  "pending": [],
  "returns": {},
  "timestamp": 1784409436740,
  "chain": 1,
  "commit": "9f4c9db"
}